{
  "contractName": "HboiBirdz",
  "abi": [
    {
      "inputs": [],
      "stateMutability": "nonpayable",
      "type": "constructor"
    },
    {
      "anonymous": false,
      "inputs": [
        {
          "indexed": true,
          "internalType": "address",
          "name": "_owner",
          "type": "address"
        },
        {
          "indexed": true,
          "internalType": "address",
          "name": "_approved",
          "type": "address"
        },
        {
          "indexed": true,
          "internalType": "uint256",
          "name": "_tokenId",
          "type": "uint256"
        }
      ],
      "name": "Approval",
      "type": "event"
    },
    {
      "anonymous": false,
      "inputs": [
        {
          "indexed": true,
          "internalType": "address",
          "name": "_from",
          "type": "address"
        },
        {
          "indexed": true,
          "internalType": "address",
          "name": "_to",
          "type": "address"
        },
        {
          "indexed": true,
          "internalType": "uint256",
          "name": "_tokenId",
          "type": "uint256"
        }
      ],
      "name": "Transfer",
      "type": "event"
    },
    {
      "inputs": [
        {
          "internalType": "address",
          "name": "_to",
          "type": "address"
        },
        {
          "internalType": "uint256",
          "name": "_tokenId",
          "type": "uint256"
        }
      ],
      "name": "approve",
      "outputs": [],
      "stateMutability": "nonpayable",
      "type": "function"
    },
    {
      "inputs": [
        {
          "internalType": "address",
          "name": "_owner",
          "type": "address"
        }
      ],
      "name": "balanceOf",
      "outputs": [
        {
          "internalType": "uint256",
          "name": "",
          "type": "uint256"
        }
      ],
      "stateMutability": "view",
      "type": "function",
      "constant": true
    },
    {
      "inputs": [
        {
          "internalType": "uint256",
          "name": "",
          "type": "uint256"
        }
      ],
      "name": "hboiBirdz",
      "outputs": [
        {
          "internalType": "string",
          "name": "",
          "type": "string"
        }
      ],
      "stateMutability": "view",
      "type": "function",
      "constant": true
    },
    {
      "inputs": [],
      "name": "name",
      "outputs": [
        {
          "internalType": "string",
          "name": "",
          "type": "string"
        }
      ],
      "stateMutability": "view",
      "type": "function",
      "constant": true
    },
    {
      "inputs": [
        {
          "internalType": "uint256",
          "name": "_tokenId",
          "type": "uint256"
        }
      ],
      "name": "ownerOf",
      "outputs": [
        {
          "internalType": "address",
          "name": "",
          "type": "address"
        }
      ],
      "stateMutability": "view",
      "type": "function",
      "constant": true
    },
    {
      "inputs": [
        {
          "internalType": "bytes4",
          "name": "interfaceID",
          "type": "bytes4"
        }
      ],
      "name": "supportsInterface",
      "outputs": [
        {
          "internalType": "bool",
          "name": "",
          "type": "bool"
        }
      ],
      "stateMutability": "view",
      "type": "function",
      "constant": true
    },
    {
      "inputs": [],
      "name": "symbol",
      "outputs": [
        {
          "internalType": "string",
          "name": "",
          "type": "string"
        }
      ],
      "stateMutability": "view",
      "type": "function",
      "constant": true
    },
    {
      "inputs": [
        {
          "internalType": "uint256",
          "name": "_index",
          "type": "uint256"
        }
      ],
      "name": "tokenByIndex",
      "outputs": [
        {
          "internalType": "uint256",
          "name": "",
          "type": "uint256"
        }
      ],
      "stateMutability": "view",
      "type": "function",
      "constant": true
    },
    {
      "inputs": [
        {
          "internalType": "address",
          "name": "_owner",
          "type": "address"
        },
        {
          "internalType": "uint256",
          "name": "_index",
          "type": "uint256"
        }
      ],
      "name": "tokenOfOwnerByIndex",
      "outputs": [
        {
          "internalType": "uint256",
          "name": "",
          "type": "uint256"
        }
      ],
      "stateMutability": "view",
      "type": "function",
      "constant": true
    },
    {
      "inputs": [],
      "name": "totalSupply",
      "outputs": [
        {
          "internalType": "uint256",
          "name": "",
          "type": "uint256"
        }
      ],
      "stateMutability": "view",
      "type": "function",
      "constant": true
    },
    {
      "inputs": [
        {
          "internalType": "address",
          "name": "_from",
          "type": "address"
        },
        {
          "internalType": "address",
          "name": "_to",
          "type": "address"
        },
        {
          "internalType": "uint256",
          "name": "_tokenId",
          "type": "uint256"
        }
      ],
      "name": "transferFrom",
      "outputs": [],
      "stateMutability": "nonpayable",
      "type": "function"
    },
    {
      "inputs": [
        {
          "internalType": "string",
          "name": "_hboibird",
          "type": "string"
        }
      ],
      "name": "mint",
      "outputs": [],
      "stateMutability": "nonpayable",
      "type": "function"
    }
  ],
  "bytecode": "0x60806040523480156200001157600080fd5b506040518060400160405280600981526020017f48626f69426972647a00000000000000000000000000000000000000000000008152506040518060400160405280600681526020017f48424952445a00000000000000000000000000000000000000000000000000008152508181620000b17f01ffc9a7a5cef8baa21ed3c5c0d7e23accb804b619e9333b597f47a0d84076e26200021c60201b60201c565b8160019081620000c291906200056d565b508060029081620000d491906200056d565b50620001287f13b182f4c0e5b2efbac0efe6cf6d756c8b89f4b79c5707a043ed9ea740574ee97f06fdde0383f15d582d1a74511486c9ddf862a882fb7904b3d9fe9b8b8e58a796186200021c60201b60201c565b50506200019f7f22c82707ba960a14c7592ffb6b8cfaa073fed0048a84cc7fa41f6b5bd8e7f2e47f3a6eb71757dfc6e784c1459d26270140c2c147d95ca985c80026fc5301c3eca17f8a7e378434598edc36d108689a030cbc9d7d465de4f74c71bae1028eed6a881b18186200021c60201b60201c565b620002147f8230223f691b981717299fae9549350a0d894555723531f02108b1f522c1a7977f6da5e1284143cdd2d15038a59bde3be031250f00291d64494c12d967b3a4e0c37fc53637662700e6c65104059db8bba34439e0c32483ab7c34e3ccae52c739549518186200021c60201b60201c565b5050620006d7565b63ffffffff60e01b817bffffffffffffffffffffffffffffffffffffffffffffffffffffffff19160362000287576040517f08c379a00000000000000000000000000000000000000000000000000000000081526004016200027e90620006b5565b60405180910390fd5b6001600080837bffffffffffffffffffffffffffffffffffffffffffffffffffffffff19167bffffffffffffffffffffffffffffffffffffffffffffffffffffffff1916815260200190815260200160002060006101000a81548160ff02191690831515021790555050565b600081519050919050565b7f4e487b7100000000000000000000000000000000000000000000000000000000600052604160045260246000fd5b7f4e487b7100000000000000000000000000000000000000000000000000000000600052602260045260246000fd5b600060028204905060018216806200037557607f821691505b6020821081036200038b576200038a6200032d565b5b50919050565b60008190508160005260206000209050919050565b60006020601f8301049050919050565b600082821b905092915050565b600060088302620003f57fffffffffffffffffffffffffffffffffffffffffffffffffffffffffffffffff82620003b6565b620004018683620003b6565b95508019841693508086168417925050509392505050565b6000819050919050565b6000819050919050565b60006200044e62000448620004428462000419565b62000423565b62000419565b9050919050565b6000819050919050565b6200046a836200042d565b62000482620004798262000455565b848454620003c3565b825550505050565b600090565b620004996200048a565b620004a68184846200045f565b505050565b5b81811015620004ce57620004c26000826200048f565b600181019050620004ac565b5050565b601f8211156200051d57620004e78162000391565b620004f284620003a6565b8101602085101562000502578190505b6200051a6200051185620003a6565b830182620004ab565b50505b505050565b600082821c905092915050565b6000620005426000198460080262000522565b1980831691505092915050565b60006200055d83836200052f565b9150826002028217905092915050565b6200057882620002f3565b67ffffffffffffffff811115620005945762000593620002fe565b5b620005a082546200035c565b620005ad828285620004d2565b600060209050601f831160018114620005e55760008415620005d0578287015190505b620005dc85826200054f565b8655506200064c565b601f198416620005f58662000391565b60005b828110156200061f57848901518255600182019150602085019450602081019050620005f8565b868310156200063f57848901516200063b601f8916826200052f565b8355505b6001600288020188555050505b505050505050565b600082825260208201905092915050565b7f4552433136353a20496e76616c696420496e7465726661636500000000000000600082015250565b60006200069d60198362000654565b9150620006aa8262000665565b602082019050919050565b60006020820190508181036000830152620006d0816200068e565b9050919050565b611e9880620006e76000396000f3fe608060405234801561001057600080fd5b50600436106100b45760003560e01c80634f6ccce7116100715780634f6ccce71461018d5780636352211e146101bd57806370a08231146101ed57806395d89b411461021d578063d85d3d271461023b578063f331c20b14610257576100b4565b806301ffc9a7146100b957806306fdde03146100e9578063095ea7b31461010757806318160ddd1461012357806323b872dd146101415780632f745c591461015d575b600080fd5b6100d360048036038101906100ce91906110a7565b610287565b6040516100e091906110ef565b60405180910390f35b6100f16102ee565b6040516100fe919061119a565b60405180910390f35b610121600480360381019061011c9190611250565b610380565b005b61012b61051b565b604051610138919061129f565b60405180910390f35b61015b600480360381019061015691906112ba565b610528565b005b61017760048036038101906101729190611250565b61054b565b604051610184919061129f565b60405180910390f35b6101a760048036038101906101a2919061130d565b6105fb565b6040516101b4919061129f565b60405180910390f35b6101d760048036038101906101d2919061130d565b61066c565b6040516101e49190611349565b60405180910390f35b61020760048036038101906102029190611364565b61071d565b604051610214919061129f565b60405180910390f35b6102256107d4565b604051610232919061119a565b60405180910390f35b610255600480360381019061025091906114c6565b610866565b005b610271600480360381019061026c919061130d565b610962565b60405161027e919061119a565b60405180910390f35b6000806000837bffffffffffffffffffffffffffffffffffffffffffffffffffffffff19167bffffffffffffffffffffffffffffffffffffffffffffffffffffffff1916815260200190815260200160002060009054906101000a900460ff169050919050565b6060600180546102fd9061153e565b80601f01602080910402602001604051908101604052809291908181526020018280546103299061153e565b80156103765780601f1061034b57610100808354040283529160200191610376565b820191906000526020600020905b81548152906001019060200180831161035957829003601f168201915b5050505050905090565b600061038b8261066c565b90508073ffffffffffffffffffffffffffffffffffffffff168373ffffffffffffffffffffffffffffffffffffffff16036103fb576040517f08c379a00000000000000000000000000000000000000000000000000000000081526004016103f2906115e1565b60405180910390fd5b3373ffffffffffffffffffffffffffffffffffffffff168173ffffffffffffffffffffffffffffffffffffffff1614610469576040517f08c379a00000000000000000000000000000000000000000000000000000000081526004016104609061164d565b60405180910390fd5b826005600084815260200190815260200160002060006101000a81548173ffffffffffffffffffffffffffffffffffffffff021916908373ffffffffffffffffffffffffffffffffffffffff160217905550818373ffffffffffffffffffffffffffffffffffffffff168273ffffffffffffffffffffffffffffffffffffffff167f8c5be1e5ebec7d5bd14f71427d1e84f3dd0314c0f7b2291e5b200ac8c7c3b92560405160405180910390a4505050565b6000600680549050905090565b6105323382610a0e565b61053b57600080fd5b610546838383610a9d565b505050565b60006105568361071d565b8210610597576040517f08c379a000000000000000000000000000000000000000000000000000000000815260040161058e906116b9565b60405180910390fd5b600860008473ffffffffffffffffffffffffffffffffffffffff1673ffffffffffffffffffffffffffffffffffffffff16815260200190815260200160002082815481106105e8576105e76116d9565b5b9060005260206000200154905092915050565b600061060561051b565b8210610646576040517f08c379a000000000000000000000000000000000000000000000000000000000815260040161063d90611754565b60405180910390fd5b6006828154811061065a576106596116d9565b5b90600052602060002001549050919050565b6000806003600084815260200190815260200160002060009054906101000a900473ffffffffffffffffffffffffffffffffffffffff169050600073ffffffffffffffffffffffffffffffffffffffff168173ffffffffffffffffffffffffffffffffffffffff1603610714576040517f08c379a000000000000000000000000000000000000000000000000000000000815260040161070b906117c0565b60405180910390fd5b80915050919050565b60008073ffffffffffffffffffffffffffffffffffffffff168273ffffffffffffffffffffffffffffffffffffffff160361078d576040517f08c379a00000000000000000000000000000000000000000000000000000000081526004016107849061182c565b60405180910390fd5b600460008373ffffffffffffffffffffffffffffffffffffffff1673ffffffffffffffffffffffffffffffffffffffff168152602001908152602001600020549050919050565b6060600280546107e39061153e565b80601f016020809104026020016040519081016040528092919081815260200182805461080f9061153e565b801561085c5780601f106108315761010080835404028352916020019161085c565b820191906000526020600020905b81548152906001019060200180831161083f57829003601f168201915b5050505050905090565b600b816040516108769190611888565b908152602001604051809103902060009054906101000a900460ff16156108d2576040517f08c379a00000000000000000000000000000000000000000000000000000000081526004016108c9906118eb565b60405180910390fd5b600a819080600181540180825580915050600190039060005260206000200160009091909190915090816109069190611ab7565b5060006001600a8054905061091b9190611bb8565b90506109273382610cda565b6001600b836040516109399190611888565b908152602001604051809103902060006101000a81548160ff0219169083151502179055505050565b600a818154811061097257600080fd5b90600052602060002001600091509050805461098d9061153e565b80601f01602080910402602001604051908101604052809291908181526020018280546109b99061153e565b8015610a065780601f106109db57610100808354040283529160200191610a06565b820191906000526020600020905b8154815290600101906020018083116109e957829003601f168201915b505050505081565b6000610a1982610cfb565b610a58576040517f08c379a0000000000000000000000000000000000000000000000000000000008152600401610a4f90611c38565b60405180910390fd5b6000610a638361066c565b90508073ffffffffffffffffffffffffffffffffffffffff168473ffffffffffffffffffffffffffffffffffffffff161491505092915050565b600073ffffffffffffffffffffffffffffffffffffffff168273ffffffffffffffffffffffffffffffffffffffff1603610b0c576040517f08c379a0000000000000000000000000000000000000000000000000000000008152600401610b0390611ca4565b60405180910390fd5b3373ffffffffffffffffffffffffffffffffffffffff168373ffffffffffffffffffffffffffffffffffffffff1614610b7a576040517f08c379a0000000000000000000000000000000000000000000000000000000008152600401610b7190611d10565b60405180910390fd5b816003600083815260200190815260200160002060006101000a81548173ffffffffffffffffffffffffffffffffffffffff021916908373ffffffffffffffffffffffffffffffffffffffff1602179055506001600460008573ffffffffffffffffffffffffffffffffffffffff1673ffffffffffffffffffffffffffffffffffffffff1681526020019081526020016000206000828254610c1c9190611bb8565b925050819055506001600460008473ffffffffffffffffffffffffffffffffffffffff1673ffffffffffffffffffffffffffffffffffffffff1681526020019081526020016000206000828254610c739190611d30565b92505081905550808273ffffffffffffffffffffffffffffffffffffffff168473ffffffffffffffffffffffffffffffffffffffff167fddf252ad1be2c89b69c2b068fc378daa952ba7f163c4a11628f55a4df523b3ef60405160405180910390a4505050565b610ce48282610d6d565b610ced81610f2e565b610cf78282610f77565b5050565b6000806003600084815260200190815260200160002060009054906101000a900473ffffffffffffffffffffffffffffffffffffffff169050600073ffffffffffffffffffffffffffffffffffffffff168173ffffffffffffffffffffffffffffffffffffffff161415915050919050565b600073ffffffffffffffffffffffffffffffffffffffff168273ffffffffffffffffffffffffffffffffffffffff1603610ddc576040517f08c379a0000000000000000000000000000000000000000000000000000000008152600401610dd390611dd6565b60405180910390fd5b610de581610cfb565b15610e25576040517f08c379a0000000000000000000000000000000000000000000000000000000008152600401610e1c90611e42565b60405180910390fd5b816003600083815260200190815260200160002060006101000a81548173ffffffffffffffffffffffffffffffffffffffff021916908373ffffffffffffffffffffffffffffffffffffffff1602179055506001600460008473ffffffffffffffffffffffffffffffffffffffff1673ffffffffffffffffffffffffffffffffffffffff1681526020019081526020016000206000828254610ec79190611d30565b92505081905550808273ffffffffffffffffffffffffffffffffffffffff16600073ffffffffffffffffffffffffffffffffffffffff167fddf252ad1be2c89b69c2b068fc378daa952ba7f163c4a11628f55a4df523b3ef60405160405180910390a45050565b6006805490506007600083815260200190815260200160002081905550600681908060018154018082558091505060019003906000526020600020016000909190919091505550565b600860008373ffffffffffffffffffffffffffffffffffffffff1673ffffffffffffffffffffffffffffffffffffffff168152602001908152602001600020819080600181540180825580915050600190039060005260206000200160009091909190915055600860008373ffffffffffffffffffffffffffffffffffffffff1673ffffffffffffffffffffffffffffffffffffffff1681526020019081526020016000208054905060096000838152602001908152602001600020819055505050565b6000604051905090565b600080fd5b600080fd5b60007fffffffff0000000000000000000000000000000000000000000000000000000082169050919050565b6110848161104f565b811461108f57600080fd5b50565b6000813590506110a18161107b565b92915050565b6000602082840312156110bd576110bc611045565b5b60006110cb84828501611092565b91505092915050565b60008115159050919050565b6110e9816110d4565b82525050565b600060208201905061110460008301846110e0565b92915050565b600081519050919050565b600082825260208201905092915050565b60005b83811015611144578082015181840152602081019050611129565b60008484015250505050565b6000601f19601f8301169050919050565b600061116c8261110a565b6111768185611115565b9350611186818560208601611126565b61118f81611150565b840191505092915050565b600060208201905081810360008301526111b48184611161565b905092915050565b600073ffffffffffffffffffffffffffffffffffffffff82169050919050565b60006111e7826111bc565b9050919050565b6111f7816111dc565b811461120257600080fd5b50565b600081359050611214816111ee565b92915050565b6000819050919050565b61122d8161121a565b811461123857600080fd5b50565b60008135905061124a81611224565b92915050565b6000806040838503121561126757611266611045565b5b600061127585828601611205565b92505060206112868582860161123b565b9150509250929050565b6112998161121a565b82525050565b60006020820190506112b46000830184611290565b92915050565b6000806000606084860312156112d3576112d2611045565b5b60006112e186828701611205565b93505060206112f286828701611205565b92505060406113038682870161123b565b9150509250925092565b60006020828403121561132357611322611045565b5b60006113318482850161123b565b91505092915050565b611343816111dc565b82525050565b600060208201905061135e600083018461133a565b92915050565b60006020828403121561137a57611379611045565b5b600061138884828501611205565b91505092915050565b600080fd5b600080fd5b7f4e487b7100000000000000000000000000000000000000000000000000000000600052604160045260246000fd5b6113d382611150565b810181811067ffffffffffffffff821117156113f2576113f161139b565b5b80604052505050565b600061140561103b565b905061141182826113ca565b919050565b600067ffffffffffffffff8211156114315761143061139b565b5b61143a82611150565b9050602081019050919050565b82818337600083830152505050565b600061146961146484611416565b6113fb565b90508281526020810184848401111561148557611484611396565b5b611490848285611447565b509392505050565b600082601f8301126114ad576114ac611391565b5b81356114bd848260208601611456565b91505092915050565b6000602082840312156114dc576114db611045565b5b600082013567ffffffffffffffff8111156114fa576114f961104a565b5b61150684828501611498565b91505092915050565b7f4e487b7100000000000000000000000000000000000000000000000000000000600052602260045260246000fd5b6000600282049050600182168061155657607f821691505b6020821081036115695761156861150f565b5b50919050565b7f4572726f722d45524337312c20417070726f76616c20746f2063757272656e7460008201527f206f776e65720000000000000000000000000000000000000000000000000000602082015250565b60006115cb602683611115565b91506115d68261156f565b604082019050919050565b600060208201905081810360008301526115fa816115be565b9050919050565b7f4f6e6c79204f776e65722063616e20617070726f766520746f6b656e21000000600082015250565b6000611637601d83611115565b915061164282611601565b602082019050919050565b600060208201905081810360008301526116668161162a565b9050919050565b7f4f776e657220696e646578206973206f7574206f6620626f756e642100000000600082015250565b60006116a3601c83611115565b91506116ae8261166d565b602082019050919050565b600060208201905081810360008301526116d281611696565b9050919050565b7f4e487b7100000000000000000000000000000000000000000000000000000000600052603260045260246000fd5b7f476c6f62616c20696e646578206973206f7574206f6620626f756e6421000000600082015250565b600061173e601d83611115565b915061174982611708565b602082019050919050565b6000602082019050818103600083015261176d81611731565b9050919050565b7f4552433732313a204164647265737320646f6573206e6f742065786973740000600082015250565b60006117aa601e83611115565b91506117b582611774565b602082019050919050565b600060208201905081810360008301526117d98161179d565b9050919050565b7f4552433732313a20496e76616c69642041646472657373000000000000000000600082015250565b6000611816601783611115565b9150611821826117e0565b602082019050919050565b6000602082019050818103600083015261184581611809565b9050919050565b600081905092915050565b60006118628261110a565b61186c818561184c565b935061187c818560208601611126565b80840191505092915050565b60006118948284611857565b915081905092915050565b7f4572726f72202d204e465420616c726561647920657869737400000000000000600082015250565b60006118d5601983611115565b91506118e08261189f565b602082019050919050565b60006020820190508181036000830152611904816118c8565b9050919050565b60008190508160005260206000209050919050565b60006020601f8301049050919050565b600082821b905092915050565b60006008830261196d7fffffffffffffffffffffffffffffffffffffffffffffffffffffffffffffffff82611930565b6119778683611930565b95508019841693508086168417925050509392505050565b6000819050919050565b60006119b46119af6119aa8461121a565b61198f565b61121a565b9050919050565b6000819050919050565b6119ce83611999565b6119e26119da826119bb565b84845461193d565b825550505050565b600090565b6119f76119ea565b611a028184846119c5565b505050565b5b81811015611a2657611a1b6000826119ef565b600181019050611a08565b5050565b601f821115611a6b57611a3c8161190b565b611a4584611920565b81016020851015611a54578190505b611a68611a6085611920565b830182611a07565b50505b505050565b600082821c905092915050565b6000611a8e60001984600802611a70565b1980831691505092915050565b6000611aa78383611a7d565b9150826002028217905092915050565b611ac08261110a565b67ffffffffffffffff811115611ad957611ad861139b565b5b611ae3825461153e565b611aee828285611a2a565b600060209050601f831160018114611b215760008415611b0f578287015190505b611b198582611a9b565b865550611b81565b601f198416611b2f8661190b565b60005b82811015611b5757848901518255600182019150602085019450602081019050611b32565b86831015611b745784890151611b70601f891682611a7d565b8355505b6001600288020188555050505b505050505050565b7f4e487b7100000000000000000000000000000000000000000000000000000000600052601160045260246000fd5b6000611bc38261121a565b9150611bce8361121a565b9250828203905081811115611be657611be5611b89565b5b92915050565b7f536f7272792120546f6b656e20646f6573206e6f742065786973740000000000600082015250565b6000611c22601b83611115565b9150611c2d82611bec565b602082019050919050565b60006020820190508181036000830152611c5181611c15565b9050919050565b7f536f727279212041646472657373206e6f742076616c69640000000000000000600082015250565b6000611c8e601883611115565b9150611c9982611c58565b602082019050919050565b60006020820190508181036000830152611cbd81611c81565b9050919050565b7f536f72727921206f6e6c79206f776e65722063616e2073656e6420746f6b656e600082015250565b6000611cfa602083611115565b9150611d0582611cc4565b602082019050919050565b60006020820190508181036000830152611d2981611ced565b9050919050565b6000611d3b8261121a565b9150611d468361121a565b9250828201905080821115611d5e57611d5d611b89565b5b92915050565b7f4552433732313a20416464726573732073686f756c64206e6f74206265207a6560008201527f726f000000000000000000000000000000000000000000000000000000000000602082015250565b6000611dc0602283611115565b9150611dcb82611d64565b604082019050919050565b60006020820190508181036000830152611def81611db3565b9050919050565b7f4552433732313a204164647265737320616c7265616479206578697374000000600082015250565b6000611e2c601d83611115565b9150611e3782611df6565b602082019050919050565b60006020820190508181036000830152611e5b81611e1f565b905091905056fea2646970667358221220297725bdcc357537d68f29126d0aa0894b7d469f1a3ebce47f424df3eec4f25264736f6c63430008110033",
  "immutableReferences": {},
  "source": "// SPDX-License-Identifier: MIT\r\npragma solidity ^0.8.0;\r\n\r\nimport \"./ERC721Connector.sol\";\r\n\r\ncontract HboiBirdz is ERC721Connector{\r\n\r\n    //create an arrays to store our nft created\r\n\r\n    string [] public hboiBirdz;\r\n\r\n    //we need to set a mapping to check if our nft exist\r\n\r\n    mapping(string => bool) _hboiBirdExist;\r\n\r\n    constructor () ERC721Connector('HboiBirdz', 'HBIRDZ'){\r\n        \r\n    }\r\n\r\n    //function that does the minting\r\n\r\n    function mint(string memory _hboibird) public {\r\n\r\n        require(!_hboiBirdExist[_hboibird], \"Error - NFT already exist\");\r\n      // this method of getting the index with push is deprecated for complier version 0.8.0 but works for other version\r\n      //  uint256 _id = HboiBirdz.push(_hboibird);\r\n\r\n      hboiBirdz.push(_hboibird);\r\n\r\n      uint _id = hboiBirdz.length - 1; // set the index\r\n\r\n      _mint(msg.sender, _id); // this function is from the ERC721 contract that map the address to its token ID\r\n\r\n        _hboiBirdExist[_hboibird] = true;\r\n    }\r\n}",
  "sourcePath": "C:\\Users\\HP\\Desktop\\nft\\src\\contracts\\HboiBirdz.sol",
  "compiler": {
    "name": "solc",
    "version": "0.8.17+commit.8df45f5f.Emscripten.clang"
  },
  "schemaVersion": "3.4.10",
  "updatedAt": "2023-01-25T16:54:15.338Z",
  "networkType": "ethereum",
  "devdoc": {
    "kind": "dev",
    "methods": {
      "supportsInterface(bytes4)": {
        "details": "Interface identification is specified in ERC-165. This function  uses less than 30,000 gas.",
        "params": {
          "interfaceID": "The interface identifier, as specified in ERC-165"
        },
        "returns": {
          "_0": "`true` if the contract implements `interfaceID` and  `interfaceID` is not 0xffffffff, `false` otherwise"
        }
      },
      "tokenByIndex(uint256)": {
        "details": "Throws if `_index` >= `totalSupply()`.",
        "params": {
          "_index": "A counter less than `totalSupply()`"
        },
        "returns": {
          "_0": "The token identifier for the `_index`th NFT,  (sort order not specified)"
        }
      },
      "tokenOfOwnerByIndex(address,uint256)": {
        "details": "Throws if `_index` >= `balanceOf(_owner)` or if  `_owner` is the zero address, representing invalid NFTs.",
        "params": {
          "_index": "A counter less than `balanceOf(_owner)`",
          "_owner": "An address where we are interested in NFTs owned by them"
        },
        "returns": {
          "_0": "The token identifier for the `_index`th NFT assigned to `_owner`,   (sort order not specified)"
        }
      },
      "totalSupply()": {
        "returns": {
          "_0": "A count of valid NFTs tracked by this contract, where each one of  them has an assigned and queryable owner not equal to the zero address"
        }
      }
    },
    "version": 1
  },
  "userdoc": {
    "kind": "user",
    "methods": {
      "name()": {
        "notice": "A descriptive name for a collection of NFTs in this contract"
      },
      "supportsInterface(bytes4)": {
        "notice": "Query if a contract implements an interface"
      },
      "symbol()": {
        "notice": "An abbreviated name for NFTs in this contract"
      },
      "tokenByIndex(uint256)": {
        "notice": "Enumerate valid NFTs"
      },
      "tokenOfOwnerByIndex(address,uint256)": {
        "notice": "Enumerate NFTs assigned to an owner"
      },
      "totalSupply()": {
        "notice": "Count NFTs tracked by this contract"
      }
    },
    "version": 1
  }
}